20:27:01.572859 IP (tos 0x0, ttl 53, id 30450, offset 0, flags [none], proto TCP (6), length 235)
    10.14.36.121.webcache > 9.134.234.58.48574: Flags [P.], cksum 0xdb89 (correct), seq 309481578:309481761, ack 2421414396, win 122, options [nop,nop,TS val 1004940158 ecr 47056518], length 183
	0x0000:  4500 00eb 76f2 0000 3506 ebd3 0a0e 2479  E...v...5.....$y
	0x0010:  0986 ea3a 1f90 bdbe 1272 506a 9053 d9fc  ...:.....rPj.S..
	0x0020:  8018 007a db89 0000 0101 080a 3be6 2b7e  ...z........;.+~
	0x0030:  02ce 0686 4854 5450 2f31 2e31 2035 3032  ....HTTP/1.1.502
	0x0040:  2042 6164 2047 6174 6577 6179 0d0a 782d  .Bad.Gateway..x-
	0x0050:  7072 6f78 792d 6279 3a20 536d 6172 7450  proxy-by:.SmartP
	0x0060:  726f 7879 2028 496e 7465 726e 6574 2d47  roxy.(Internet-G
	0x0070:  6174 6529 0d0a 636f 6e74 656e 742d 7479  ate)..content-ty
	0x0080:  7065 3a20 7465 7874 2f68 746d 6c3b 2063  pe:.text/html;.c
	0x0090:  6861 7273 6574 3d75 7466 2d38 0d0a 636f  harset=utf-8..co
	0x00a0:  6e6e 6563 7469 6f6e 3a20 636c 6f73 650d  nnection:.close.
	0x00b0:  0a44 6174 653a 2046 7269 2c20 3037 2041  .Date:.Fri,.07.A
	0x00c0:  7567 2032 3032 3020 3132 3a32 373a 3439  ug.2020.12:27:49
	0x00d0:  2047 4d54 0d0a 436f 6e74 656e 742d 4c65  .GMT..Content-Le
	0x00e0:  6e67 7468 3a20 300d 0a0d 0a00 0000 0000  ngth:.0.........
	0x00f0:  0000 0000 0000 0000 0000 00              ...........
20:27:01.572909 IP (tos 0x0, ttl 64, id 57305, offset 0, flags [DF], proto TCP (6), length 52)
    9.134.234.58.48574 > 10.14.36.121.webcache: Flags [.], cksum 0x332d (correct), seq 1, ack 183, win 123, options [nop,nop,TS val 47057769 ecr 1004940158], length 0
	0x0000:  4500 0034 dfd9 4000 4006 38a3 0986 ea3a  E..4..@.@.8....:
	0x0010:  0a0e 2479 bdbe 1f90 9053 d9fc 1272 5121  ..$y.....S...rQ!
	0x0020:  8010 007b 332d 0000 0101 080a 02ce 0b69  ...{3-.........i
	0x0030:  3be6 2b7e 0000 0000 0000 0000 0000 0000  ;.+~............
	0x0040:  0000 0000                                ....
20:27:01.572933 IP (tos 0x0, ttl 53, id 30451, offset 0, flags [none], proto TCP (6), length 52)
    10.14.36.121.webcache > 9.134.234.58.48574: Flags [F.], cksum 0x3810 (correct), seq 183, ack 1, win 122, options [nop,nop,TS val 1004940158 ecr 47056518], length 0
	0x0000:  4500 0034 76f3 0000 3506 ec89 0a0e 2479  E..4v...5.....$y
	0x0010:  0986 ea3a 1f90 bdbe 1272 5121 9053 d9fc  ...:.....rQ!.S..
	0x0020:  8011 007a 3810 0000 0101 080a 3be6 2b7e  ...z8.......;.+~
	0x0030:  02ce 0686 0000 0000 0000 0000 0000 0000  ................
	0x0040:  0000 0000                                ....
20:27:01.573254 IP (tos 0x0, ttl 64, id 57306, offset 0, flags [DF], proto TCP (6), length 52)
    9.134.234.58.48574 > 10.14.36.121.webcache: Flags [F.], cksum 0x332b (correct), seq 1, ack 184, win 123, options [nop,nop,TS val 47057769 ecr 1004940158], length 0
	0x0000:  4500 0034 dfda 4000 4006 38a2 0986 ea3a  E..4..@.@.8....:
	0x0010:  0a0e 2479 bdbe 1f90 9053 d9fc 1272 5122  ..$y.....S...rQ"
	0x0020:  8011 007b 332b 0000 0101 080a 02ce 0b69  ...{3+.........i
	0x0030:  3be6 2b7e 0000 0000 0000 0000 0000 0000  ;.+~............
	0x0040:  0000 0000                                ....
20:27:01.577437 IP (tos 0x0, ttl 53, id 30452, offset 0, flags [none], proto TCP (6), length 52)
    10.14.36.121.webcache > 9.134.234.58.48574: Flags [.], cksum 0x332b (correct), seq 184, ack 2, win 122, options [nop,nop,TS val 1004940159 ecr 47057769], length 0
	0x0000:  4500 0034 76f4 0000 3506 ec88 0a0e 2479  E..4v...5.....$y
	0x0010:  0986 ea3a 1f90 bdbe 1272 5122 9053 d9fd  ...:.....rQ".S..
	0x0020:  8010 007a 332b 0000 0101 080a 3be6 2b7f  ...z3+......;.+.
	0x0030:  02ce 0b69 0000 0000 0000 0000 0000 0000  ...i............
	0x0040:  0000 0000                                ....
20:27:02.546861 IP (tos 0x0, ttl 53, id 13398, offset 0, flags [none], proto TCP (6), length 60)
    10.14.87.218.34347 > 9.134.234.58.webcache: Flags [S], cksum 0x55e3 (correct), seq 1913558844, win 14000, options [mss 1400,sackOK,TS val 328180586 ecr 0,nop,wscale 7], length 0
	0x0000:  4500 003c 3456 0000 3506 fbbd 0a0e 57da  E..<4V..5.....W.
	0x0010:  0986 ea3a 862b 1f90 720e 973c 0000 0000  ...:.+..r..<....
	0x0020:  a002 36b0 55e3 0000 0204 0578 0402 080a  ..6.U......x....
	0x0030:  138f a36a 0000 0000 0103 0307 0000 0000  ...j............
	0x0040:  0000 0000 0000 0000 0000 0000            ............
20:27:02.546928 IP (tos 0x0, ttl 64, id 0, offset 0, flags [DF], proto TCP (6), length 60)
    9.134.234.58.webcache > 10.14.87.218.34347: Flags [S.], cksum 0xfc04 (correct), seq 1654449646, ack 1913558845, win 14480, options [mss 1460,sackOK,TS val 47058013 ecr 328180586,nop,wscale 2], length 0
	0x0000:  4500 003c 0000 4000 4006 e513 0986 ea3a  E..<..@.@......:
	0x0010:  0a0e 57da 1f90 862b 629c e5ee 720e 973d  ..W....+b...r..=
	0x0020:  a012 3890 fc04 0000 0204 05b4 0402 080a  ..8.............
	0x0030:  02ce 0c5d 138f a36a 0103 0302 0000 0000  ...]...j........
	0x0040:  0000 0000 0000 0000 0000 0000            ............
20:27:02.551002 IP (tos 0x0, ttl 53, id 13399, offset 0, flags [none], proto TCP (6), length 52)
    10.14.87.218.34347 > 9.134.234.58.webcache: Flags [.], cksum 0x62ed (correct), seq 1, ack 1, win 110, options [nop,nop,TS val 328180587 ecr 47058013], length 0
	0x0000:  4500 0034 3457 0000 3506 fbc4 0a0e 57da  E..44W..5.....W.
	0x0010:  0986 ea3a 862b 1f90 720e 973d 629c e5ef  ...:.+..r..=b...
	0x0020:  8010 006e 62ed 0000 0101 080a 138f a36b  ...nb..........k
	0x0030:  02ce 0c5d 0000 0000 0000 0000 0000 0000  ...]............
	0x0040:  0000 0000                                ....
20:27:02.801325 IP (tos 0x0, ttl 53, id 63004, offset 0, flags [none], proto TCP (6), length 235)
    10.14.36.121.webcache > 9.134.234.58.48576: Flags [P.], cksum 0x8f73 (correct), seq 2819729901:2819730084, ack 2259879512, win 122, options [nop,nop,TS val 1066755289 ecr 47056825], length 183
	0x0000:  4500 00eb f61c 0000 3506 6ca9 0a0e 2479  E.......5.l...$y
	0x0010:  0986 ea3a 1f90 bdc0 a811 a9ed 86b3 0658  ...:...........X
	0x0020:  8018 007a 8f73 0000 0101 080a 3f95 64d9  ...z.s......?.d.
	0x0030:  02ce 07b9 4854 5450 2f31 2e31 2035 3032  ....HTTP/1.1.502
	0x0040:  2042 6164 2047 6174 6577 6179 0d0a 782d  .Bad.Gateway..x-
	0x0050:  7072 6f78 792d 6279 3a20 536d 6172 7450  proxy-by:.SmartP
	0x0060:  726f 7879 2028 496e 7465 726e 6574 2d47  roxy.(Internet-G
	0x0070:  6174 6529 0d0a 636f 6e74 656e 742d 7479  ate)..content-ty
	0x0080:  7065 3a20 7465 7874 2f68 746d 6c3b 2063  pe:.text/html;.c
	0x0090:  6861 7273 6574 3d75 7466 2d38 0d0a 636f  harset=utf-8..co
	0x00a0:  6e6e 6563 7469 6f6e 3a20 636c 6f73 650d  nnection:.close.
	0x00b0:  0a44 6174 653a 2046 7269 2c20 3037 2041  .Date:.Fri,.07.A
	0x00c0:  7567 2032 3032 3020 3132 3a32 373a 3032  ug.2020.12:27:02
	0x00d0:  2047 4d54 0d0a 436f 6e74 656e 742d 4c65  .GMT..Content-Le
	0x00e0:  6e67 7468 3a20 300d 0a0d 0a00 0000 0000  ngth:.0.........
	0x00f0:  0000 0000 0000 0000 0000 00              ...........
20:27:02.801364 IP (tos 0x0, ttl 64, id 538, offset 0, flags [DF], proto TCP (6), length 52)
    9.134.234.58.48576 > 10.14.36.121.webcache: Flags [.], cksum 0xe30f (correct), seq 1, ack 183, win 123, options [nop,nop,TS val 47058076 ecr 1066755289], length 0
	0x0000:  4500 0034 021a 4000 4006 1663 0986 ea3a  E..4..@.@..c...:
	0x0010:  0a0e 2479 bdc0 1f90 86b3 0658 a811 aaa4  ..$y.......X....
	0x0020:  8010 007b e30f 0000 0101 080a 02ce 0c9c  ...{............
	0x0030:  3f95 64d9 0000 0000 0000 0000 0000 0000  ?.d.............
	0x0040:  0000 0000                                ....
20:27:02.801375 IP (tos 0x0, ttl 53, id 63005, offset 0, flags [none], proto TCP (6), length 52)
    10.14.36.121.webcache > 9.134.234.58.48576: Flags [F.], cksum 0xe7f2 (correct), seq 183, ack 1, win 122, options [nop,nop,TS val 1066755289 ecr 47056825], length 0
	0x0000:  4500 0034 f61d 0000 3506 6d5f 0a0e 2479  E..4....5.m_..$y
	0x0010:  0986 ea3a 1f90 bdc0 a811 aaa4 86b3 0658  ...:...........X
	0x0020:  8011 007a e7f2 0000 0101 080a 3f95 64d9  ...z........?.d.
	0x0030:  02ce 07b9 0000 0000 0000 0000 0000 0000  ................
	0x0040:  0000 0000                                ....
20:27:02.801561 IP (tos 0x0, ttl 64, id 539, offset 0, flags [DF], proto TCP (6), length 52)
    9.134.234.58.48576 > 10.14.36.121.webcache: Flags [F.], cksum 0xe30c (correct), seq 1, ack 184, win 123, options [nop,nop,TS val 47058077 ecr 1066755289], length 0
	0x0000:  4500 0034 021b 4000 4006 1662 0986 ea3a  E..4..@.@..b...:
	0x0010:  0a0e 2479 bdc0 1f90 86b3 0658 a811 aaa5  ..$y.......X....
	0x0020:  8011 007b e30c 0000 0101 080a 02ce 0c9d  ...{............
	0x0030:  3f95 64d9 0000 0000 0000 0000 0000 0000  ?.d.............
	0x0040:  0000 0000                                ....
20:27:02.802500 IP (tos 0x0, ttl 53, id 34611, offset 0, flags [none], proto TCP (6), length 235)
    10.14.36.121.webcache > 9.134.234.58.48575: Flags [P.], cksum 0x086b (correct), seq 211343556:211343739, ack 2193948146, win 122, options [nop,nop,TS val 1066755289 ecr 47056825], length 183
	0x0000:  4500 00eb 8733 0000 3506 db92 0a0e 2479  E....3..5.....$y
	0x0010:  0986 ea3a 1f90 bdbf 0c98 d8c4 82c4 fdf2  ...:............
	0x0020:  8018 007a 086b 0000 0101 080a 3f95 64d9  ...z.k......?.d.
	0x0030:  02ce 07b9 4854 5450 2f31 2e31 2035 3032  ....HTTP/1.1.502
	0x0040:  2042 6164 2047 6174 6577 6179 0d0a 782d  .Bad.Gateway..x-
	0x0050:  7072 6f78 792d 6279 3a20 536d 6172 7450  proxy-by:.SmartP
	0x0060:  726f 7879 2028 496e 7465 726e 6574 2d47  roxy.(Internet-G
	0x0070:  6174 6529 0d0a 636f 6e74 656e 742d 7479  ate)..content-ty
	0x0080:  7065 3a20 7465 7874 2f68 746d 6c3b 2063  pe:.text/html;.c
	0x0090:  6861 7273 6574 3d75 7466 2d38 0d0a 636f  harset=utf-8..co
	0x00a0:  6e6e 6563 7469 6f6e 3a20 636c 6f73 650d  nnection:.close.
	0x00b0:  0a44 6174 653a 2046 7269 2c20 3037 2041  .Date:.Fri,.07.A
	0x00c0:  7567 2032 3032 3020 3132 3a32 373a 3032  ug.2020.12:27:02
	0x00d0:  2047 4d54 0d0a 436f 6e74 656e 742d 4c65  .GMT..Content-Le
	0x00e0:  6e67 7468 3a20 300d 0a0d 0a00 0000 0000  ngth:.0.........
	0x00f0:  0000 0000 0000 0000 0000 00              ...........
20:27:02.802533 IP (tos 0x0, ttl 64, id 64244, offset 0, flags [DF], proto TCP (6), length 52)
    9.134.234.58.48575 > 10.14.36.121.webcache: Flags [.], cksum 0x5c06 (correct), seq 1, ack 183, win 123, options [nop,nop,TS val 47058077 ecr 1066755289], length 0
	0x0000:  4500 0034 faf4 4000 4006 1d88 0986 ea3a  E..4..@.@......:
	0x0010:  0a0e 2479 bdbf 1f90 82c4 fdf2 0c98 d97b  ..$y...........{
	0x0020:  8010 007b 5c06 0000 0101 080a 02ce 0c9d  ...{\...........
	0x0030:  3f95 64d9 0000 0000 0000 0000 0000 0000  ?.d.............
	0x0040:  0000 0000                                ....
20:27:02.802649 IP (tos 0x0, ttl 53, id 34612, offset 0, flags [none], proto TCP (6), length 52)
    10.14.36.121.webcache > 9.134.234.58.48575: Flags [F.], cksum 0x60ea (correct), seq 183, ack 1, win 122, options [nop,nop,TS val 1066755289 ecr 47056825], length 0
	0x0000:  4500 0034 8734 0000 3506 dc48 0a0e 2479  E..4.4..5..H..$y
	0x0010:  0986 ea3a 1f90 bdbf 0c98 d97b 82c4 fdf2  ...:.......{....
	0x0020:  8011 007a 60ea 0000 0101 080a 3f95 64d9  ...z`.......?.d.
	0x0030:  02ce 07b9 0000 0000 0000 0000 0000 0000  ................
	0x0040:  0000 0000                                ....
20:27:02.802684 IP (tos 0x0, ttl 64, id 64245, offset 0, flags [DF], proto TCP (6), length 52)
    9.134.234.58.48575 > 10.14.36.121.webcache: Flags [F.], cksum 0x5c04 (correct), seq 1, ack 184, win 123, options [nop,nop,TS val 47058077 ecr 1066755289], length 0
	0x0000:  4500 0034 faf5 4000 4006 1d87 0986 ea3a  E..4..@.@......:
	0x0010:  0a0e 2479 bdbf 1f90 82c4 fdf2 0c98 d97c  ..$y...........|
	0x0020:  8011 007b 5c04 0000 0101 080a 02ce 0c9d  ...{\...........
	0x0030:  3f95 64d9 0000 0000 0000 0000 0000 0000  ?.d.............
	0x0040:  0000 0000                                ....
20:27:02.806181 IP (tos 0x0, ttl 53, id 63006, offset 0, flags [none], proto TCP (6), length 52)
    10.14.36.121.webcache > 9.134.234.58.48576: Flags [.], cksum 0xe30c (correct), seq 184, ack 2, win 122, options [nop,nop,TS val 1066755290 ecr 47058077], length 0
	0x0000:  4500 0034 f61e 0000 3506 6d5e 0a0e 2479  E..4....5.m^..$y
	0x0010:  0986 ea3a 1f90 bdc0 a811 aaa5 86b3 0659  ...:...........Y
	0x0020:  8010 007a e30c 0000 0101 080a 3f95 64da  ...z........?.d.
	0x0030:  02ce 0c9d 0000 0000 0000 0000 0000 0000  ................
	0x0040:  0000 0000                                ....
20:27:02.807162 IP (tos 0x0, ttl 53, id 34613, offset 0, flags [none], proto TCP (6), length 52)
    10.14.36.121.webcache > 9.134.234.58.48575: Flags [.], cksum 0x5c04 (correct), seq 184, ack 2, win 122, options [nop,nop,TS val 1066755290 ecr 47058077], length 0
	0x0000:  4500 0034 8735 0000 3506 dc47 0a0e 2479  E..4.5..5..G..$y
	0x0010:  0986 ea3a 1f90 bdbf 0c98 d97c 82c4 fdf3  ...:.......|....
	0x0020:  8010 007a 5c04 0000 0101 080a 3f95 64da  ...z\.......?.d.
	0x0030:  02ce 0c9d 0000 0000 0000 0000 0000 0000  ................
	0x0040:  0000 0000                                ....
20:27:02.812197 IP (tos 0x0, ttl 53, id 50095, offset 0, flags [none], proto TCP (6), length 52)
    10.14.36.121.webcache > 9.134.234.58.48577: Flags [F.], cksum 0xa53e (correct), seq 79488307, ack 3812331802, win 122, options [nop,nop,TS val 1004940468 ecr 47056828], length 0
	0x0000:  4500 0034 c3af 0000 3506 9fcd 0a0e 2479  E..4....5.....$y
	0x0010:  0986 ea3a 1f90 bdc1 04bc e533 e33b 911a  ...:.......3.;..
	0x0020:  8011 007a a53e 0000 0101 080a 3be6 2cb4  ...z.>......;.,.
	0x0030:  02ce 07bc 0000 0000 0000 0000 0000 0000  ................
	0x0040:  0000 0000                                ....
20:27:02.812219 IP (tos 0x0, ttl 64, id 38861, offset 0, flags [DF], proto TCP (6), length 64)
    9.134.234.58.48577 > 10.14.36.121.webcache: Flags [.], cksum 0x9c05 (correct), seq 1, ack 4294967113, win 115, options [nop,nop,TS val 47058079 ecr 1004939217,nop,nop,sack 1 {0:1}], length 0
	0x0000:  4500 0040 97cd 4000 4006 80a3 0986 ea3a  E..@..@.@......:
	0x0010:  0a0e 2479 bdc1 1f90 e33b 911a 04bc e47c  ..$y.....;.....|
	0x0020:  b010 0073 9c05 0000 0101 080a 02ce 0c9f  ...s............
	0x0030:  3be6 27d1 0101 050a 04bc e533 04bc e534  ;.'........3...4
	0x0040:  0000 0000 0000 0000 0000 0000 0000 0000  ................
20:27:02.812199 IP (tos 0x0, ttl 53, id 50094, offset 0, flags [none], proto TCP (6), length 235)
    10.14.36.121.webcache > 9.134.234.58.48577: Flags [P.], cksum 0x47c1 (correct), seq 4294967113:0, ack 1, win 122, options [nop,nop,TS val 1004940468 ecr 47056828], length 183
	0x0000:  4500 00eb c3ae 0000 3506 9f17 0a0e 2479  E.......5.....$y
	0x0010:  0986 ea3a 1f90 bdc1 04bc e47c e33b 911a  ...:.......|.;..
	0x0020:  8018 007a 47c1 0000 0101 080a 3be6 2cb4  ...zG.......;.,.
	0x0030:  02ce 07bc 4854 5450 2f31 2e31 2035 3032  ....HTTP/1.1.502
	0x0040:  2042 6164 2047 6174 6577 6179 0d0a 782d  .Bad.Gateway..x-
	0x0050:  7072 6f78 792d 6279 3a20 536d 6172 7450  proxy-by:.SmartP
	0x0060:  726f 7879 2028 496e 7465 726e 6574 2d47  roxy.(Internet-G
	0x0070:  6174 6529 0d0a 636f 6e74 656e 742d 7479  ate)..content-ty
	0x0080:  7065 3a20 7465 7874 2f68 746d 6c3b 2063  pe:.text/html;.c
	0x0090:  6861 7273 6574 3d75 7466 2d38 0d0a 636f  harset=utf-8..co
	0x00a0:  6e6e 6563 7469 6f6e 3a20 636c 6f73 650d  nnection:.close.
	0x00b0:  0a44 6174 653a 2046 7269 2c20 3037 2041  .Date:.Fri,.07.A
	0x00c0:  7567 2032 3032 3020 3132 3a32 373a 3530  ug.2020.12:27:50
	0x00d0:  2047 4d54 0d0a 436f 6e74 656e 742d 4c65  .GMT..Content-Le
	0x00e0:  6e67 7468 3a20 300d 0a0d 0a00 0000 0000  ngth:.0.........
	0x00f0:  0000 0000 0000 0000 0000 00              ...........
20:27:02.812231 IP (tos 0x0, ttl 64, id 38862, offset 0, flags [DF], proto TCP (6), length 52)
    9.134.234.58.48577 > 10.14.36.121.webcache: Flags [.], cksum 0xa05a (correct), seq 1, ack 1, win 123, options [nop,nop,TS val 47058079 ecr 1004940468], length 0
	0x0000:  4500 0034 97ce 4000 4006 80ae 0986 ea3a  E..4..@.@......:
	0x0010:  0a0e 2479 bdc1 1f90 e33b 911a 04bc e534  ..$y.....;.....4
	0x0020:  8010 007b a05a 0000 0101 080a 02ce 0c9f  ...{.Z..........
	0x0030:  3be6 2cb4 0000 0000 0000 0000 0000 0000  ;.,.............
	0x0040:  0000 0000                                ....
20:27:02.812303 IP (tos 0x0, ttl 64, id 38863, offset 0, flags [DF], proto TCP (6), length 52)
    9.134.234.58.48577 > 10.14.36.121.webcache: Flags [F.], cksum 0xa059 (correct), seq 1, ack 1, win 123, options [nop,nop,TS val 47058079 ecr 1004940468], length 0
	0x0000:  4500 0034 97cf 4000 4006 80ad 0986 ea3a  E..4..@.@......:
	0x0010:  0a0e 2479 bdc1 1f90 e33b 911a 04bc e534  ..$y.....;.....4
	0x0020:  8011 007b a059 0000 0101 080a 02ce 0c9f  ...{.Y..........
	0x0030:  3be6 2cb4 0000 0000 0000 0000 0000 0000  ;.,.............
	0x0040:  0000 0000                                ....
20:27:02.816296 IP (tos 0x0, ttl 53, id 488, offset 0, flags [none], proto TCP (6), length 40)
    10.14.36.121.webcache > 9.134.234.58.48577: Flags [R], cksum 0xc70e (correct), seq 79488124, win 0, length 0
	0x0000:  4500 0028 01e8 0000 3506 61a1 0a0e 2479  E..(....5.a...$y
	0x0010:  0986 ea3a 1f90 bdc1 04bc e47c 0000 0000  ...:.......|....
	0x0020:  5004 0000 c70e 0000 0000 0000 0000 0000  P...............
	0x0030:  0000 0000 0000 0000                      ........
20:27:02.816297 IP (tos 0x0, ttl 53, id 489, offset 0, flags [none], proto TCP (6), length 40)
    10.14.36.121.webcache > 9.134.234.58.48577: Flags [R], cksum 0xc656 (correct), seq 79488308, win 0, length 0
	0x0000:  4500 0028 01e9 0000 3506 61a0 0a0e 2479  E..(....5.a...$y
	0x0010:  0986 ea3a 1f90 bdc1 04bc e534 0000 0000  ...:.......4....
	0x0020:  5004 0000 c656 0000 0000 0000 0000 0000  P....V..........
	0x0030:  0000 0000 0000 0000                      ........
20:27:02.816393 IP (tos 0x0, ttl 53, id 61583, offset 0, flags [none], proto TCP (6), length 235)
    10.14.36.121.webcache > 9.134.234.58.48578: Flags [P.], cksum 0xecb9 (correct), seq 2410913192:2410913375, ack 2166147978, win 122, options [nop,nop,TS val 1025602057 ecr 47056829], length 183
	0x0000:  4500 00eb f08f 0000 3506 7236 0a0e 2479  E.......5.r6..$y
	0x0010:  0986 ea3a 1f90 bdc2 8fb3 9da8 811c cb8a  ...:............
	0x0020:  8018 007a ecb9 0000 0101 080a 3d21 7209  ...z........=!r.
	0x0030:  02ce 07bd 4854 5450 2f31 2e31 2035 3032  ....HTTP/1.1.502
	0x0040:  2042 6164 2047 6174 6577 6179 0d0a 782d  .Bad.Gateway..x-
	0x0050:  7072 6f78 792d 6279 3a20 536d 6172 7450  proxy-by:.SmartP
	0x0060:  726f 7879 2028 496e 7465 726e 6574 2d47  roxy.(Internet-G
	0x0070:  6174 6529 0d0a 636f 6e74 656e 742d 7479  ate)..content-ty
	0x0080:  7065 3a20 7465 7874 2f68 746d 6c3b 2063  pe:.text/html;.c
	0x0090:  6861 7273 6574 3d75 7466 2d38 0d0a 636f  harset=utf-8..co
	0x00a0:  6e6e 6563 7469 6f6e 3a20 636c 6f73 650d  nnection:.close.
	0x00b0:  0a44 6174 653a 2046 7269 2c20 3037 2041  .Date:.Fri,.07.A
	0x00c0:  7567 2032 3032 3020 3132 3a32 333a 3131  ug.2020.12:23:11
	0x00d0:  2047 4d54 0d0a 436f 6e74 656e 742d 4c65  .GMT..Content-Le
	0x00e0:  6e67 7468 3a20 300d 0a0d 0a00 0000 0000  ngth:.0.........
	0x00f0:  0000 0000 0000 0000 0000 00              ...........
20:27:02.816414 IP (tos 0x0, ttl 64, id 52576, offset 0, flags [DF], proto TCP (6), length 52)
    9.134.234.58.48578 > 10.14.36.121.webcache: Flags [.], cksum 0x3d55 (correct), seq 1, ack 183, win 123, options [nop,nop,TS val 47058080 ecr 1025602057], length 0
	0x0000:  4500 0034 cd60 4000 4006 4b1c 0986 ea3a  E..4.`@.@.K....:
	0x0010:  0a0e 2479 bdc2 1f90 811c cb8a 8fb3 9e5f  ..$y..........._
	0x0020:  8010 007b 3d55 0000 0101 080a 02ce 0ca0  ...{=U..........
	0x0030:  3d21 7209 0000 0000 0000 0000 0000 0000  =!r.............
	0x0040:  0000 0000                                ....
20:27:02.816567 IP (tos 0x0, ttl 53, id 61584, offset 0, flags [none], proto TCP (6), length 52)
    10.14.36.121.webcache > 9.134.234.58.48578: Flags [F.], cksum 0x4238 (correct), seq 183, ack 1, win 122, options [nop,nop,TS val 1025602057 ecr 47056829], length 0
	0x0000:  4500 0034 f090 0000 3506 72ec 0a0e 2479  E..4....5.r...$y
	0x0010:  0986 ea3a 1f90 bdc2 8fb3 9e5f 811c cb8a  ...:......._....
	0x0020:  8011 007a 4238 0000 0101 080a 3d21 7209  ...zB8......=!r.
	0x0030:  02ce 07bd 0000 0000 0000 0000 0000 0000  ................
	0x0040:  0000 0000                                ....
20:27:02.816628 IP (tos 0x0, ttl 64, id 52577, offset 0, flags [DF], proto TCP (6), length 52)
    9.134.234.58.48578 > 10.14.36.121.webcache: Flags [F.], cksum 0x3d53 (correct), seq 1, ack 184, win 123, options [nop,nop,TS val 47058080 ecr 1025602057], length 0
	0x0000:  4500 0034 cd61 4000 4006 4b1b 0986 ea3a  E..4.a@.@.K....:
	0x0010:  0a0e 2479 bdc2 1f90 811c cb8a 8fb3 9e60  ..$y...........`
	0x0020:  8011 007b 3d53 0000 0101 080a 02ce 0ca0  ...{=S..........
	0x0030:  3d21 7209 0000 0000 0000 0000 0000 0000  =!r.............
	0x0040:  0000 0000                                ....
20:27:02.820771 IP (tos 0x0, ttl 53, id 61585, offset 0, flags [none], proto TCP (6), length 52)
    10.14.36.121.webcache > 9.134.234.58.48578: Flags [.], cksum 0x3d53 (correct), seq 184, ack 2, win 122, options [nop,nop,TS val 1025602058 ecr 47058080], length 0
	0x0000:  4500 0034 f091 0000 3506 72eb 0a0e 2479  E..4....5.r...$y
	0x0010:  0986 ea3a 1f90 bdc2 8fb3 9e60 811c cb8b  ...:.......`....
	0x0020:  8010 007a 3d53 0000 0101 080a 3d21 720a  ...z=S......=!r.
	0x0030:  02ce 0ca0 0000 0000 0000 0000 0000 0000  ................
	0x0040:  0000 0000                                ....
20:27:03.978899 IP (tos 0x0, ttl 53, id 13400, offset 0, flags [none], proto TCP (6), length 84)
    10.14.87.218.34347 > 9.134.234.58.webcache: Flags [P.], cksum 0x802b (correct), seq 1:33, ack 1, win 110, options [nop,nop,TS val 328180944 ecr 47058013], length 32
	0x0000:  4500 0054 3458 0000 3506 fba3 0a0e 57da  E..T4X..5.....W.
	0x0010:  0986 ea3a 862b 1f90 720e 973d 629c e5ef  ...:.+..r..=b...
	0x0020:  8018 006e 802b 0000 0101 080a 138f a4d0  ...n.+..........
	0x0030:  02ce 0c5d 6874 7470 3a2f 2f77 7777 2e63  ...]http://www.c
	0x0040:  6d73 6f66 742e 636e 2051 513a 3130 3836  msoft.cn.QQ:1086
	0x0050:  3536 3030 0000 0000 0000 0000 0000 0000  5600............
	0x0060:  0000 0000                                ....
20:27:03.978924 IP (tos 0x0, ttl 64, id 59825, offset 0, flags [DF], proto TCP (6), length 52)
    9.134.234.58.webcache > 10.14.87.218.34347: Flags [.], cksum 0x524c (correct), seq 1, ack 33, win 3620, options [nop,nop,TS val 47058371 ecr 328180944], length 0
	0x0000:  4500 0034 e9b1 4000 4006 fb69 0986 ea3a  E..4..@.@..i...:
	0x0010:  0a0e 57da 1f90 862b 629c e5ef 720e 975d  ..W....+b...r..]
	0x0020:  8010 0e24 524c 0000 0101 080a 02ce 0dc3  ...$RL..........
	0x0030:  138f a4d0 4854 5450 2f31 2e31 2035 3032  ....HTTP/1.1.502
	0x0040:  2042 6164                                .Bad
20:27:05.630059 IP (tos 0x0, ttl 53, id 13401, offset 0, flags [none], proto TCP (6), length 52)
    10.14.87.218.34347 > 9.134.234.58.webcache: Flags [F.], cksum 0x5e64 (correct), seq 33, ack 1, win 110, options [nop,nop,TS val 328181357 ecr 47058371], length 0
	0x0000:  4500 0034 3459 0000 3506 fbc2 0a0e 57da  E..44Y..5.....W.
	0x0010:  0986 ea3a 862b 1f90 720e 975d 629c e5ef  ...:.+..r..]b...
	0x0020:  8011 006e 5e64 0000 0101 080a 138f a66d  ...n^d.........m
	0x0030:  02ce 0dc3 0000 0000 0000 0000 0000 0000  ................
	0x0040:  0000 0000                                ....
20:27:05.669517 IP (tos 0x0, ttl 64, id 59826, offset 0, flags [DF], proto TCP (6), length 52)
    9.134.234.58.webcache > 10.14.87.218.34347: Flags [.], cksum 0x4f07 (correct), seq 1, ack 34, win 3620, options [nop,nop,TS val 47058794 ecr 328181357], length 0
	0x0000:  4500 0034 e9b2 4000 4006 fb68 0986 ea3a  E..4..@.@..h...:
	0x0010:  0a0e 57da 1f90 862b 629c e5ef 720e 975e  ..W....+b...r..^
	0x0020:  8010 0e24 4f07 0000 0101 080a 02ce 0f6a  ...$O..........j
	0x0030:  138f a66d 0000 0000 0000 0000 0000 0000  ...m............
	0x0040:  0000 0000                                ....

